:020000021000EC
:1090000000600020759301005D9301005F930100F3
:10901000619301006393010065930100000000006B
:109020000000000000000000000000006793010045
:1090300069930100000000006B9301006D93010033
:1090400085B201006F930100A1B601006F9301008A
:109050006F9301000000000055B501006F930100FF
:109060006F9301006F9301006F9301006F930100F4
:109070006F9301006F9301006F9301006F930100E4
:109080006F9301002DA401006F9301006F93010005
:109090006F9301006F930100D5D501006F9301001C
:1090A0006F9301006F9301000000000000000000BA
:1090B0006F9301006F9301000000000000000000AA
:1090C00000000000000000000000000000000000A0
:1090D0000000000000000000000000000000000090
:1090E0000000000000000000000000000000000080
:1090F0000000000000000000000000000000000070
:10910000000000000000000000000000000000005F
:10911000000000000000000000000000000000004F
:10912000000000000000000000000000000000003F
:10913000000000000000000000000000000000002F
:10914000000000000000000000000000000000001F
:10915000000000000000000000000000000000000F
:1091600000000000000000000000000000000000FF
:1091700000000000000000000000000000000000EF
:1091800000000000000000000000000000000000DF
:1091900000000000000000000000000000000000CF
:1091A00000000000000000000000000000000000BF
:1091B00000000000000000000000000000000000AF
:1091C000000000000000000000000000000000009F
:1091D000000000000000000000000000000000008F
:1091E000000000000000000000000000000000007F
:1091F000000000000000000000000000000000006F
:10920000354936480A1A02D0072291438D4634491F
:1092100034480A1A06D00722914381F309880222B2
:1092200082F3148830483149314A00F044F831481B
:109230003149324A00F03FF831483249324A00F0B1
:109240003AF832483249334A00F035F83248334967
:10925000334A00F030F833483349344A00F02BF8F1
:1092600033483449344A00F026F83448344900225F
:1092700000F02CF833483449002200F027F8334836
:109280003349091A082902DB002202604160314A91
:1092900090471F481F49884205D00268043003B434
:1092A000904703BCF7E700208646EC4600200021EB
:1092B000294A9047FEE7884207D0521A05D0037822
:1092C00001300B700131013AF9D17047884202D068
:1092D00002700130FAE7704700600020005800205B
:1092E000006000200060002034E80100E01A002047
:1092F000301B0020BC930100BC93010060DA010028
:1093000034E80100E01A0020E01A00204CDB0100E4
:109310004CDB01004CDB01004CDB01004CDB0100AD
:109320004CDB01004CDB01004CDB010032E80100AA
:1093300084E80100301B0020301B0020301B00207F
:1093400098260020982600209826002098260020A5
:10935000982E00208B93010041C20100FEE7FEE73A
:10936000FEE7FEE7FEE7FEE7FEE7FEE7FEE7FEE7D5
:1093700000F002B8FFF7FCBF0B484FF0070188432D
:1093800085460A488047FFF73BBF094809490A4A12
:10939000884207D0521A05D0037801300B70013192
:1093A000013AF9D170470000006000205DAD010076
:0C93B0004CDB0100E01A0020E01A002055
:1093BC00F0B595B01D46164608460C4601F0DEFB8E
:1093CC001A9B0D93CDE9086500252B46082205A9AB
:1093DC0020460A958DF82C500C9501F0EBFB079B61
:1093EC000293069B03939DF814308DF8115003F0F3
:1093FC000302012A1DD1BDF81420059DC3F3C2033D
:10940C00C2F383168DF81030B20008230EA9204643
:10941C0001F0D0FBC5F3952508AB0093324602ABA7
:10942C000EA9284600F0A2FB204601F0ABFB15B0BC
:10943C00F0BD022AF8D1BDF81650C3F3C203C5F330
:10944C0089158DF810300827082D2E4628BF0826C0
:10945C003B4632460EA9204601F0ACFBAD1B08ABD7
:10946C0002AA31460EA8374400F0E4FB002DEBD1E4
:10947C00DAE70000014B01221A707047711B0020C3
:10948C007047000070B50E4D06460FCD88B06C4687
:10949C000FC495E80F00002E84E80F00094A0A4813
:1094AC004FF0060308BF00226946009301F06CFEE2
:1094BC0008B100F061FC054B1E7008B070BD00BF18
:1094CC004CDB010081940100E01A0020301B0020CD
:1094DC0007B5044B0093044A4023FFF769FF03B020
:1094EC005DF804FBF9940100311B002038B50D48E0
:1094FC000D4C0E4D002323700378EB5CD2B263B19C
:10950C00043002F055FD08B100F036FC084B1A7817
:10951C0012B12378002BFBD038BD0C3002F0F6FAD8
:10952C00F1E700BFE01A0020711B0020F821002099
:10953C00301B002008B50848084A0378D35C3BB1BF
:10954C00043002F099FCBDE808400020FFF79ABFF8
:10955C000C3002F065FAF6E7E01A0020F821002042
:10956C000120FFF78FBF000008B5FFF7F9FF044893
:10957C00042100F06BFA034B01225A7108BD00BFA5
:10958C003CDB0100F41A00200378024613F00400BF
:10959C0006D003F00300012803D0022809D00120D3
:1095AC0070470B6812880233C2F3831213440B60AA
:1095BC0070470B685288023303EB92130B60EEE793
:1095CC002DE9F04FDFF81CA187B00F4600230446AD
:1095DC00861C0DF1070015468DF8073000F0B4FD20
:1095EC00DAF804203A60DAF8083003F580739B1A35
:1095FC000AF21C470AF583690AF21448B3421AD3DB
:10960C000020002D69D004F00F039B0143F00503EB
:10961C0063F30F00DAF80430DAB2033233444AF859
:10962C0022009DF80700CAF8043000F0B1FD0120BB
:10963C0007B0BDE8F08F0121384600F0CEFF484658
:10964C0000F0E3FF404600F0E0FFDAF8080002907B
:10965C00C0B203300AEB800002A9FFF795FF029B12
:10966C0030BBDAB20AEB8202D16803919A1C013347
:10967C00DBB20AEB83030292D3F80CB001F00303C4
:10968C00012B22D0022B15D08346404600F0C0FFA0
:10969C0010B1029BCAF808305946384600F09DFFBD
:1096AC00DAF80830DAF8042003F580739B1AA5E782
:1096BC00D8B2CEE7BDF80E30C3F3891303334FEAAB
:1096CC001B4B02EB93030293DFE7BDF80C30C3F3A3
:1096DC0083134FEA1B4B1344F5E7A40544F0060033
:1096EC0098E700BF441C0020064B074810B5002229
:1096FC001A7001F0FCF9044610B9044801F088FA1C
:10970C00204610BD441C0020B0DA0100A0DB010093
:10971C0030B50A4C71B10A4A0A49121BD20800230F
:10972C009A4201D1002030BD31F82350854202D03D
:10973C000133F5E7034654F83300F4E7C4DA0100CB
:10974C003CDB0100E01A0020094B013903EBC0009F
:10975C00032909D8DFE801F00A0204060420704747
:10976C00007970474079704700207047022070479D
:10977C00C4DA0100034BD3E90130C31A58425841F3
:10978C00704700BF441C00202DE9F04186B0FFF764
:10979C00F1FF0546002840F0ED80774CC4F8180422
:1097AC00BFF34F8FA3680293DBB2033304EB830048
:1097BC0002A9FFF7E9FE029B18B1D4F81824002A7D
:1097CC005AD0DAB2991C013304EB8202DBB204EBFF
:1097DC008303D268DB68049302F00303022B039229
:1097EC00029154D1BDF80E306448C3F38917502F41
:1097FC003E4628BF502606F1080166F38F13C1F3CD
:10980C000901ADF80E3001F08AF90546002800F088
:10981C009C8001F0B3F90023082203A9284601F02B
:10982C00BFF90299CB43DBB20133C9B20331B6EBBA
:10983C00830F4FEA830204EB810125D95FFA82F88A
:10984C000823A6EB0806284601F0AAF9F6B208F19F
:10985C0008034B4903F0FC033246284601F0A0F9FB
:10986C00029B033703EB97070297D4F81834002BAD
:10987C0043D1D4F8106453E062689A4294D8A26041
:10988C00284606B0BDE8F08108233246E5E7012BF7
:10989C005BD1BDF80C303948C3F38311062928BFBE
:1098AC00062161F38913023101F00F018900ADF833
:1098BC000C3001F034F90546002846D001F05EF971
:1098CC000023082203A9284601F06AF90026BDF8F6
:1098DC000C20C2F38312B300964203F10803C4D2E6
:1098EC0002994A1CC9B20331029204EB8101042291
:1098FC00284601F055F90136E9E7284601F042F90E
:10990C00FFF738FF80F00105EDB2B9E7F3685B793A
:10991C0023B1336829461B6830469847F3681E68A4
:10992C00002EF3D1284601F02DF90DF107008DF82A
:10993C00076000F009FCD4F818340BB9029BA36043
:10994C009DF8070000F024FCDAE7D4F8104454B971
:10995C000C4B0D480D49C01AC008000440F0020021
:10996C0000F05CF8CCE7236820469B689847E368D6
:10997C001C68ECE7002583E7441C0020B0DA0100EA
:10998C00501C0020C4DA0100ECDA010089DB010074
:10999C002DE9F34704460E46924601A901221846CA
:1099AC009946FFF70DFE1B4F10B3019D4FF00008B9
:1099BC00AA1CC84508EB020123D11748002100F06E
:1099CC00DDFD80F31000000440EA1440E4006B1C41
:1099DC0004F03804DBB2EDB244F0010407EB83036E
:1099EC00033544EA881444EA8624D86047F82540B5
:1099FC003B781BB1FFF7C8FE0028FBD102B0BDE8D5
:109A0C00F087C9B207EB81015AF82830CB6008F116
:109A1C000108CEE7441C00206020002000231A46D9
:109A2C00FFF7B6BF07B50123019201AAFFF7B0FFFC
:109A3C0003B05DF804FB07B5CDE9002302236A46A9
:109A4C00FFF7A6FF03B05DF804FB000030B50F4C28
:109A5C00D4F8102403460020114631B9D968087196
:109A6C004AB9C4F810340A6030BDC9680D79854212
:109A7C0006D00968F1E7D26814680C601360F3E74C
:109A8C0001300A28E8D14FF0FF30EDE7441C0020EC
:109A9C0038B5084B0125D3F810441D7004B938BDF6
:109AAC00E3685D71236820465B689847E3681C682F
:109ABC00F4E700BF441C0020C38873B504460D4670
:109ACC0033B1144A00921449144A284600F003FE9C
:109ADC00217A05291CD0637A4BB1A088FFF734FE9C
:109AEC000F4B104953F82020284600F0F4FD227A41
:109AFC000D4BA08853F822600021FFF709FE0B499B
:109B0C0003463246284602B0BDE8704000F0E3BD83
:109B1C0002B070BDCCDB0100B4DB0100ACDB01009A
:109B2C0038DC0100D1DB01005CDC0100D4DB01007E
:109B3C0010B5037A052B0C460FD0437A23B1084A93
:109B4C000849204600F0C7FD0749204600F0C3FD38
:109B5C002046BDE8104000F0B3BD002AF8D0F3E772
:109B6C00CCDB0100D1DB0100C9DB01002DE9F043A6
:109B7C0085B01F460C9D002395F80C902B73064660
:109B8C000C46904629463846FFF796FFB8F1060F6B
:109B9C0009D8DFE808F00412181F283340003146BA
:109BAC00284600F098FD002229463846FFF7C0FFF2
:109BBC0085F80C9005B0BDE8F08322683146284644
:109BCC0000F089FDEFE7D4E900233146284600F088
:109BDC0082FDE8E7A36800933146D4E900232846C8
:109BEC0000F079FDDFE7E3680193A3680093314649
:109BFC00D4E90023284600F06EFDD4E723690293D4
:109C0C00E3680193A36800933146D4E90023284606
:109C1C0000F061FDC7E76369039323690293E3686E
:109C2C000193A36800933146D4E90023284600F041
:109C3C0052FDB8E708292DE9F74F80460E46174626
:109C4C001C463DD800251B7B2573214610460193ED
:109C5C00FFF732FFDFF888A0DFF888B0AE4232D9C8
:109C6C0018F805205946204600F035FD0135082D21
:109C7C00F4D11D49DFF874A0DFF874B0204600F071
:109C8C002AFD4FF000094E4524D918F809507E2DB5
:109C9C001ED8284603F028FE002814BF2A462E2280
:109CAC005946204600F017FD09F10109B9F1080FDA
:109CBC00E9D1012221463846FFF73AFF019B237375
:109CCC0003B0BDE8F08F5146204600F004FDCDE70F
:109CDC002E22E5E75146204600F0FDFCE4E700BFEC
:109CEC00E4DB0100DEDB0100E8DB0100E6DB010068
:109CFC00EADB010070B5084D084E00242B789C421D
:109D0C0001D3002070BD3368012113F8340001F039
:109D1C00B3FB0134F2E700BFFC2000202821002017
:109D2C0073B5114D114E00242B789C4215D3002392
:109D3C000DF107008DF8073000F006FA0C4B0021EE
:109D4C000020C3E900019DF8070000F021FA094842
:109D5C0002B0BDE8704000F022B9336813F834004B
:109D6C0001F0D0FB0134DFE7FC200020282100208B
:109D7C0020210020002100201FB50021039001AA02
:109D8C0044F20100CDE9011100F004F805B05DF8D2
:109D9C0004FB000038B572B6FFF77AFEFFF7F4FC4F
:109DAC000028FBD1104B114C114D1249E41AE40858
:109DBC00240444F00100FFF731FED5F8F030DB0746
:109DCC0000D500BE0C4944F00200FFF727FEBFF39C
:109DDC004F8FEA68094B02F4E0621343EB60BFF368
:109DEC004F8F00BFFDE700BFC4DA0100ECDA0100C1
:109DFC0000ED00E07BDC010087DC01000400FA05CB
:109E0C0010B5D0E90243D1E90202A04272EB030380
:109E1C002CBF0120002010BD08B50A4800F0E9FA5B
:109E2C00094AD2E90031C018084BD3E9002341F1AB
:109E3C000001904271EB030303D210F1807041F1E9
:109E4C00000108BDFC1A002030210020A8210020B0
:109E5C0037B505460C460A4801A900F0FEFA60B178
:109E6C000570446001A9064800F021FB18B10548B3
:109E7C0000F0C4FA002003B030BD0420FBE700BFA3
:109E8C0094210020FC1A002038B5184B1B7804468E
:109E9C0013B90025284638BD0028FAD0037F03F0FB
:109EAC00FF05002BF5D0FFF7B7FFD4E90223904252
:109EBC0071EB030314D3236903B92377D4E9053079
:109ECC00984721690029E4D0237F03F0FF05002B7C
:109EDC00DFD0D4E902325B1842F10002C4E902324D
:109EEC000348214600F0B3FED4E700BF3821002020
:109EFC00A4DC010013B5114B11491868019008231B
:109F0C001048582200F096FA044698B90E4A0F48A9
:109F1C0001A900F05FF9044660B90C48012100F07A
:109F2C004BFA01230A4A0948194600F0ADF9094BCE
:109F3C0001221A70204602B010BD00BF9EDC010049
:109F4C003C21002094210020C59F0100FC1A002018
:109F5C00FFFF7F00382100203AB103685A614A1E86
:109F6C00514251411961002070470720704738B5A4
:109F7C00037F04460D4683B98261FFF74DFF2369C9
:109F8C00281841F10001C4E9020103B12561214601
:109F9C000020BDE83840FFF75BBF002038BD002330
:109FAC00014603770120FFF753BF0000014800F082
:109FBC0020BA00BFFC1A00202DE9F347064600F03A
:109FCC0003FA40B1584AD2E9003113F1807341F1E0
:109FDC000001C2E900310021304600F004FA38B12A
:109FEC00524C236823B12068FFF74EFF00232360F7
:109FFC000121304600F0F7F920B1FFF70DFF4C4B73
:10A00C00C3E900014B48494D4B4C4C4F01A900F0A2
:10A01C005EFA002842D1DFF82081444CDFF8209111
:10A02C00404600F02AFE2368002872D07BB12368DA
:10A03C00D0E90252D3E902138D4272EB03032AD208
:10A04C0023681B7F1BB12168404600F000FE404690
:10A05C0000F00DFED0E9027A0546FFF7DDFE3F1A4F
:10A06C006AEB010A012F7AF1000345DBB7F5350FD6
:10A07C0040D3FFF79BFF334A02444FF49603002171
:10A08C00484600F021F900283ED1236813B9304628
:10A09C0000F0F2F8256002B0BDE8F0870378012BE0
:10A0AC001DD0022B09D14FF00008204600F0DFFD37
:10A0BC00002836D080F81C80F7E73BB941680B7F4D
:10A0CC0023B901230B77204600F0C1FD01A91948E3
:10A0DC0000F028FA01A9174800F0F9F999E741684E
:10A0EC002B68994202D100232B60EFE7204600F049
:10A0FC00C7FDEBE7AA68C0E70021484600F069F904
:10A10C002846FFF7C1FE01E00D28F9D0002323609B
:10A11C0086E7002BBFD1304602B0BDE8F04700F017
:10A12C00AFB801233B70D1E730210020B0210020D3
:10A13C00A821002094210020A4DC0100382100205B
:10A14C00FC1A0020FFFFB40070B5EFF3108672B656
:10A15C000C4A946801239CB993600B4B0B4DD3F8BC
:10A16C00801029401160C3F88050D3F884105160DE
:10A17C004FF0FF32C3F88420047006B962B670BD8C
:10A18C000370FAE7B421002000E100E0FC06FFBDFB
:10A19C00084B9A6810B55AB150B9EFF3108172B6EA
:10A1AC00054A1C6814605C685460986001B962B61A
:10A1BC0010BD00BFB421002000E100E00346405870
:10A1CC0082B028B100225A505B580193019B0120A8
:10A1DC0002B07047F8B5204B4479204E43F8242048
:10A1EC001F4A204B06EBC4049B1A2279DB081B0484
:10A1FC0032B143F002001C49FFF710FC0820F8BDF7
:10A20C0002680C88C2F8084590F904508A780479E1
:10A21C005201002DD2B219DB14494F1987F80023D3
:10A22C0001226D0904F01F0402FA04F441F82540E0
:10A23C00427906EBC201012446F832000C7143F05E
:10A24C0003000B49FFF7EAFB0020D8E7094904F0AB
:10A25C000F040A55ECE700BFC8210020C0210020E4
:10A26C00C4DA0100FCDA0100B0DC010000E100E01E
:10A27C00D2DC010014ED00E0036801221A60704783
:10A28C00036801225A60704773B501F15005AD00A7
:10A29C000068ADB24FF480348C400026C0F80843FF
:10A2AC00C0F84843465101F5A8714559019522F073
:10A2BC007F42019D40F82120C0F844430BB1C0F807
:10A2CC00044302B070BD00002DE9F74F0D4622F09B
:10A2DC007F4402684FF4803705F150068F4080466A
:10A2EC00B60002EB8500C2F84873B6B2C2F8087328
:10A2FC00D2F8041599464FF0000BD0F84035C0F851
:10A30C00401542F806B05B1A9259009223F07F4335
:10A31C00012B009A4FEA850A0CD1264B4FF4806032
:10A32C0043F001039847D8F8003043F806B09B5926
:10A33C000193019BD8F80010D1F80465C1F844735F
:10A34C00A31B23F07F43012B1CD11A4B05F5A875D9
:10A35C00013443F0010341F825404FF480609847E5
:10A36C00D8F80030D3F804359E4209D1D8F8003023
:10A37C000020C3F84473C3F8047303B0BDE8F08F36
:10A38C000D20FAE78A44C9F1FF13CAF84045D1F809
:10A39C000405221A013A22F07F4203F57F439342CF
:10A3AC00EED3002AE2D10134CAF84045D1F8043585
:10A3BC009842DAE7F0DC010003680222C3F8442378
:10A3CC0009B1C3F80423704700684FF48271FFF79A
:10A3DC00F5BE4FF4803303FA01F10368C3F8481358
:10A3EC00C3F80813704750318900006889B2FFF731
:10A3FC00E5BE0368D3F804057047000090F90430FB
:10A40C00002B09DB5A09012103F01F0301FA03F3A6
:10A41C004032024941F82230704700BF00E100E0B1
:10A42C00024B034A1B681068184700BFC821002064
:10A43C00C021002030B5054659B1B2FBF3F403FB43
:10A44C001424A0B238B9C5E90010A860AA81EB8128
:10A45C0030BD0E20FCE70920FAE737B550E8013F84
:10A46C009DB2C48925448489A54228BF2D1B04892B
:10A47C00A54202BFBFF32F8F002207E0C5EA0305F8
:10A48C0040E80154002CE9D14FF001028DF8032073
:10A49C000193019A0A609DF8031001F0FF0321B1AA
:10A4AC00006810FA82F003B030BD1846FBE70A884A
:10A4BC004B889A4209D150E8012FC2EA024240E887
:10A4CC000123002BF7D1012070470020704737B5CE
:10A4DC0050E8023F1FFAA3F5C488A54202BFBFF3A0
:10A4EC002F8F00220DE0C48925448489A54228BF02
:10A4FC002D1BC3EA054540E80254002CE8D14FF06F
:10A50C0001028DF803200193019A0A609DF8031053
:10A51C0001F0FF0321B1006800EB124003B030BD25
:10A52C001846FBE70A884B889A4209D150E8022F5B
:10A53C00C2EA224240E80223002BF7D101207047E7
:10A54C000020704701F01F024B090121914000EBE4
:10A55C00830000F01EB801F01F0301229A404B0942
:10A56C0000EB8300D14300F02CB84B0901F01F0124
:10A57C0050F82300C84000F00100704710B50346A6
:10A58C0053E8000F0A4643E8002494F0000FF7D17B
:10A59C0010BD10B5034653E8002F42EA010043E812
:10A5AC00000494F0000FF6D110BD10B5034653E82B
:10A5BC00000F00EA010243E8002494F0000FF6D1EA
:10A5CC0010BD10B5034653E8002F02EA010043E822
:10A5DC00000494F0000FF6D110BD10B5034653E8FB
:10A5EC00002F02EB010043E8000494F0000FF6D1B9
:10A5FC0010BD10B5034653E8002FA2EB010043E851
:10A60C00000494F0000FF6D110BD0121FFF7C1BF7B
:10A61C000021FFF7CABF10B590B1D0E90123016842
:10A62C009B1ADBB20A60013BDBB2FF2B026802D142
:10A63C000020107110BD11684C1C14600B70F2E7F7
:10A64C000E20F7E737B5054600240DF107008DF80D
:10A65C000740FFF779FD2A686B68116899420ED99B
:10A66C00481E106011F8013CEC68298A01FB034478
:10A67C00AB6811791B1ADBB2994238BF13719DF884
:10A68C000700FFF785FD204603B030BD37B5054602
:10A69C0000230DF107000C468DF80730FFF754FD31
:10A6AC002A681368591C1160E968641A298AB4FB7A
:10A6BC00F1F41C709DF80700FFF76AFD03B030BD84
:10A6CC00826810B504462AB143690168006998474D
:10A6DC000023A36010BD0EB403B5039921B104ABE4
:10A6EC0001AA019300F076F802B05DF804EB03B018
:10A6FC0070470A2938B504460D4602D10D21FFF7E3
:10A70C00F8FFA3682268591CA160D554D4E9013222
:10A71C009A4204D32046BDE83840FFF7D1BF38BD7C
:10A72C002DE9F84F9846DDE90A43154682460F4657
:10A73C000A464FF00109AA420FD2C14538BFC146A3
:10A74C0013F0010B01D16CB900240126B8F1010FF3
:10A75C001BD908F1FF386E43F8E709F10109B2FB88
:10A76C00F5F2E8E79B070ED5B8F1000F0CBF3026C9
:10A77C002026A145E9D2013C31465046FFF7B9FFEE
:10A78C00002CF6D1E0E72026F3E7B7FBF6F39D4269
:10A79C00E1D9DFF83C80B7FBF6F3504618F803100C
:10A7AC0006FB1377FFF7A5FF3346AB42B6FBF5F676
:10A7BC00F1D2BBF1000F02D00CB1A14501D3BDE821
:10A7CC00F88F20215046013CFFF793FFF4E700BFC0
:10A7DC00F6DC01002DE9F74F05461746884600299F
:10A7EC0000F03E8118F8011B49B92B7B002B00F0BF
:10A7FC003781284603B0BDE8F04FFFF761BF25292C
:10A80C0040F0B780002698F800302D2B424608F116
:10A81C00010823D0302B24D02B2B25D000242A2B1D
:10A82C0002F1010123D13B681A1D1B683A601C44DC
:10A83C000A4613782E2B26D101324FF0000A10460F
:10A84C0010F8011BA1F1300CBCF1090F1DD80A2323
:10A85C0003FB0A13A3F1300A0246F0E746F00106A7
:10A86C00D1E746F00206CEE746F00406CBE711F836
:10A87C00013CA3F130000928DBD80A2202FB043486
:10A88C00303C0A46CBE74FF0000A12F8011B01F0EE
:10A89C00FB0068289046F8D0782909D86F290CD885
:10A8AC00632962D022D8252963D0582900F08880EA
:10A8BC0098F80030002B95D197E770390829F7D814
:10A8CC0001A353F821F000BF47AA0100BDA8010065
:10A8DC00BDA80100DDA90100BDA80100BBA90100B4
:10A8EC00BDA80100BDA80100CDA90100642901D0BB
:10A8FC006929DDD13A68D2F80090111D89EAE97214
:10A90C003960A2EBE9724FF0010B092A35DCD34513
:10A91C0038BFD3462CB1B9F1000F01DB720700D55B
:10A92C00013CB30702D5BAF1000F03D0F00701D4F4
:10A93C004CBB0024B9F1000F2DDAC9F100092D210F
:10A94C002846FFF7D6FE06F00302022A04D1BAF11C
:10A95C00000F01D11CBB0024CDE9004653460A224E
:10A96C0049462846FFF7DCFEA2E73B681A1D19781A
:10A97C003A602846FFF7BDFE9AE70A230BF1010B5C
:10A98C00B2FBF3F2C1E7A345D4D220212846013C07
:10A99C00FFF7AFFECCE77107D5D52B21D0E7A34548
:10A9AC00DAD230212846013CFFF7A3FED2E7396802
:10A9BC00CDE900460A1D3A6053460A220968D0E7E1
:10A9CC0039680A1D3A60CDE9004653461022F5E776
:10A9DC003B681A1D3A6016F00106D3F8009024D19A
:10A9EC00B9F1000F03D0484603F004F80646B44210
:10A9FC001DD809F1FF3919F8011F00293FF458AF90
:10AA0C002846FFF776FEF6E728460136FFF771FE7B
:10AA1C0019F806100029F7D1A642BFF449AF20213E
:10AA2C002846013CFFF765FEF6E70026F0E72021FB
:10AA3C002846013CFFF75DFED9E73B681A1D3A60DA
:10AA4C00302128461C68FFF754FE78212846FFF772
:10AA5C0050FE00220823CDE900322146102280E767
:10AA6C0003B0BDE8F08F00BF2DE9F84FB0F806A099
:10AA7C004579D2F800B09DF828900AFB05F5043D05
:10AA8C0088460BEB0301A94203F1040488BFA5EB34
:10AA9C00030BB4FBFAF607460AFB1644C2F800B0E7
:10AAAC004EB9AAEB04055D4528BF5D46BBF1000F0E
:10AABC0004D1BDE8F88F3F68013EF1E7043408EBA0
:10AACC0006003C442A46B9F1000F0DD02146ABEBF1
:10AADC00050B02F011FFDA452E443F6855464FF046
:10AAEC00000428BF5D46E1E701462046EFE7FFF78B
:10AAFC0092BDF8B546790146721E05460023934275
:10AB0C002D6803D30024A64202D8F8BD0133F6E722
:10AB1C000F682846FFF7BAFD01343946F3E72DE9F3
:10AB2C00F843068ACD1C0746FFF78CFD043E3544DE
:10AB3C000446B5FBF6F5F0B14FF48073EDB28380AB
:10AB4C00C680013D076081464FF00008A84512D22F
:10AB5C003846FFF777FD064648B1637901336371D8
:10AB6C0008F10108C9F8000007608146EEE72046AD
:10AB7C00FFF7BFFF34462046BDE8F88301210430BF
:10AB8C00FFF72BBD10B5012104460430FFF731FD52
:10AB9C00C0B220B92046BDE81040FFF7AABF10BDD7
:10ABAC001FB503920022009203AAFFF75DFF05B0C8
:10ABBC005DF804FB1FB503920122009203AAFFF774
:10ABCC0053FF05B05DF804FB41DF7047064B10B531
:10ABDC0000241C70054B1C60BFF35F8F04490548B3
:10ABEC0000F01FF8204610BDD4210020D8210020F1
:10ABFC0010DD0100CC21002008B502F0CBFC18B10F
:10AC0C00BDE80840FFF7E0BF20BF40BF20BF08BD34
:10AC1C00836800225A60C3E904229A60DA601A60E1
:10AC2C0070470B684A684360934208BF0023016079
:10AC3C0008BF43607047436843B10268916852682B
:10AC4C000B449342436004BF00234360704770B5CC
:10AC5C00446806460D46206818B1B36829469847E3
:10AC6C0018B923682B60256070BD2468F3E743682E
:10AC7C00186808B102681A60704743681868704712
:10AC8C004368186800B97047884203D102681A609B
:10AC9C000120704703460068F4E7000010B50D4929
:10ACAC00A1F59472914201D800200FE08C1AE30FA9
:10ACBC0003EBE4035B1002EBC30452F83330834222
:10ACCC0005D802D204F10802ECE7606810BD2146F9
:10ACDC00E8E700BF1CE2010008B5FFF7DFFF024BFD
:10ACEC00002808BF184608BDDFE00100BFF34F8FF6
:10ACFC000549064BCA6802F4E0621343CB60BFF30C
:10AD0C004F8F00BFFDE700BF00ED00E00400FA0527
:10AD1C004FF08053D3F83001082804D0A0F10E0373
:10AD2C005842584170470120704700004FF0805343
:10AD3C00D3F83021082A06D1D3F83431032B02D8AA
:10AD4C00024AD05C70470020704700BF1CE2010033
:10AD5C0008B54FF08053D3F830210E2A01BFD3F839
:10AD6C0044324FF08042C3F34233C2F83C35FFF714
:10AD7C00CFFF40B14FF080430022C3F80C21C3F841
:10AD8C001021C3F83825FFF7C3FF002846D04FF039
:10AD9C0080526B4BD2F80414C3F82015D2F8081467
:10ADAC00C3F82415D2F80C14C3F82815D2F81014D3
:10ADBC00C3F82C15D2F81414C3F83015D2F81814A3
:10ADCC00C3F83415D2F81C14C3F84015D2F820146B
:10ADDC00C3F84415D2F82414C3F84815D2F8281433
:10ADEC00C3F84C15D2F82C14C3F85015D2F8301403
:10ADFC00C3F85415D2F83414C3F86015D2F83814CB
:10AE0C00C3F86415D2F83C14C3F86815D2F8401492
:10AE1C00C3F86C15D2F84424C3F87025FFF786FFED
:10AE2C0018B1484BFB22C3F81825FFF77FFF70B110
:10AE3C004FF080414FF08053D1F8E42ED3F85832C4
:10AE4C0022F00F0203F00F031343C1F8E43EFFF7A7
:10AE5C005FFF48B14FF08043D3F80024D10744BFC3
:10AE6C006FF00102C3F800244FF08053D3F8303157
:10AE7C000E2B01BF4FF08042D2F8E43E43F00F039B
:10AE8C00C2F8E43E4FF01023D3F80022002A03DB73
:10AE9C00D3F80422002A23DA2B4B0122C3F8042511
:10AEAC00D3F80024002AFBD04FF010221221C2F854
:10AEBC000012D3F80024002AFBD04FF010231222EA
:10AECC00C3F80422204BD3F80024002AFBD0002224
:10AEDC00C3F80425D3F80024002AFBD0FFF706FFA3
:10AEEC00D3F80022D20703D4D3F80432DB0722D5DF
:10AEFC00154B0122C3F80425D3F80024002AFBD0FB
:10AF0C004FF010220021C2F80012D3F80024002ABE
:10AF1C00FBD04FF010230022C3F804220A4BD3F8C5
:10AF2C000024002AFBD00022C3F80425D3F8002407
:10AF3C00002AFBD0D2E7054B054A1A6008BD00BFBA
:10AF4C0000C0004000F0004000E00140041B002065
:10AF5C000090D003044B1A5C012393404FF0A042A5
:10AF6C00C2F80C35704700BF20E20100044B1A5C9C
:10AF7C00012393404FF0A042C2F80835704700BF40
:10AF8C0020E2010008B50020FFF7F0FF0120FFF7D9
:10AF9C00EDFF0220FFF7EAFFBDE808400320FFF7B2
:10AFAC00E5BFC20708B501460CD54FF0A0430322FC
:10AFBC00C3F83427C3F83827C3F83C27C3F8402715
:10AFCC00FFF7E0FF8B070AD54FF0A0430C22C3F824
:10AFDC002C27C3F83027C3F86027C3F8642708BDB3
:10AFEC0038B5074C051E04F1080318BF1C4623682E
:10AFFC002BB11A6822605B6828469847F7E738BD82
:10B00C00E421002020B9054B01225A70FFF7E8BF5C
:10B01C00012802D1014A9070F8E77047DC2100202A
:10B02C0020B9034B01225A70FFF7DABF704700BFFB
:10B03C00DC21002038B50E4C2378B3B90D48636081
:10B04C00A3602361E36000F0E7F8054602F0A2FA82
:10B05C0008B900F0EDF801232370074BD3F8003446
:10B06C000BB10123A370284638BD8525F5E700BF39
:10B07C00DC21002011B001000000014037B50D4C5F
:10B08C0000230DF107008DF80730FFF75DF8E3683A
:10B09C00013BE360E36833B9074BD3F8005415B9AF
:10B0AC0000F0D8F8A5709DF80700FFF771F803B011
:10B0BC0030BD00BFDC21002000000140012813B589
:10B0CC000CD0032820D038B9134B0122C3F88020B0
:10B0DC00BFF34F8FBFF36F8F02B010BD0F4C002327
:10B0EC000DF107008DF80730FFF72EF823780BB918
:10B0FC00FFF7A0FFE3689DF807000133E36001232D
:10B10C00A370FFF745F8E7E700F092F802B0BDE84E
:10B11C001040FFF7B3BF00BF00E100E0DC210020CE
:10B12C001FB503788DF800304368019383688DF860
:10B13C000830C368054A0393054B684653F8213021
:10B14C0052F82110984705B05DF804FBF02100205F
:10B15C00F42100201FB503788DF80030436801936B
:10B16C0083688DF80830C368054A0393054B68461D
:10B17C0053F8213052F82110984705B05DF804FBC4
:10B18C00F0210020F4210020F0B5194B90F800C0FC
:10B19C0091F81DE043F82C20164B16460A6943F82B
:10B1AC002C20154B03F80CE00C4607460FCC89B04D
:10B1BC006D460FC594E80F0085E80F00CDF810C060
:10B1CC00BEF1000F09D0002E0C4A694608BF32466A
:10B1DC00381D00F08FFD09B0F0BD002E084A6946FD
:10B1EC0008BF324607F10C0000F066FBF3E700BF26
:10B1FC00F4210020F0210020F82100202DB10100C5
:10B20C0061B1010000F18040002382B0036003684B
:10B21C000193019B02B07047044B0246187918B990
:10B22C001A6001221A71704785207047FC2100209A
:10B23C00074B1A68D20704D4C02283F800230122DA
:10B24C001A604FF080430122C3F81825704700BFE5
:10B25C0000E100E04FF0804208B50223C2F8083349
:10B26C004FF48270FFF7CEFF0123D360D2F818346D
:10B27C00DB03FBD408BD00004FF0804210B5D2F8C0
:10B28C00003153B14FF48070FFF7BCFF0123C2F8BB
:10B29C0008330B4B00201B6898474FF08042D2F8C4
:10B2AC00043163B14FF48270FFF7ACFF0223C2F894
:10B2BC000833034BBDE810401B680120184710BD34
:10B2CC00FC21002000F1804000F5C040002382B03A
:10B2DC00036003680193019B02B07047800000F18A
:10B2EC00A040D0F8002722F44032C0F80027D0F854
:10B2FC00003743EA0143C0F800377047054B4FF065
:10B30C00FF32072843F8202084BFC01880F848205B
:10B31C00704700BF0422002010B5184991F858302E
:10B32C0053BB4FF0FF3222FA03F0C00748BFC818D6
:10B33C0003F1010348BF80F83020202BF3D1002407
:10B34C00E0B20134FFF7DAFF0C2CF9D10C4B0022E0
:10B35C00C0204A6583F80603402018604FF4BE7085
:10B36C00FFF7B0FF074B4FF00040C3F80403012375
:10B37C0081F85830104610BD0820FCE7042200204C
:10B38C0000E100E000600040F0B5394E331893F94D
:10B39C003030002B69DA8D78C5F34005002D0BBFDA
:10B3AC00082300230C240824A34201D10420F0BD5F
:10B3BC0056F82370013743D137185CB246F8232076
:10B3CC0087F8304015B9F21882F848008A7855078A
:10B3DC0016D4D70736D5820002F1A042D2F8005716
:10B3EC0025F00205C2F80057224FC50800F0070CE3
:10B3FC00012202FA0CF217F805C042EA0C027A5547
:10B40C008A780D7812F0020225D09B0003F180435C
:10B41C0003F5C0430002D3F8102522F4473222F47E
:10B42C004072C3F810252D04D3F8102500F4F85001
:10B43C0005F4403528431043C3F810050020B6E747
:10B44C000133B1E74D7800F5E0724FF0A047AD0045
:10B45C0047F82250C8E7083C46FA84F494F85000A8
:10B46C0040EA851584F85050E8E708209FE700BFB4
:10B47C00042200205822002038B5204C251895F9BC
:10B48C003020072A18DD083A44FA82F494F8503038
:10B49C009B09032B0BD14FF0A043D3F81015C140DF
:10B4AC0001F001010231BDE83840FFF717BF012B55
:10B4BC000CBF02210321F6E7D3B2072B1DD8930052
:10B4CC0003F1804303F5C043D3F8100540F00100AD
:10B4DC00C3F8100502F1400040B2800080B2FFF7C3
:10B4EC00F1FE51B195F9303054F823302BB10123D2
:10B4FC0003FA02F2024BC3F8042338BD04220020E5
:10B50C00006000400E4B034493F93020072A02DD03
:10B51C000021FFF7E3BED3B2072B10D8930003F141
:10B52C00804303F5C043D3F8101521F00101C3F893
:10B53C001015012303FA02F2024BC3F808237047DB
:10B54C0004220020006000402DE9F74F00244E4DEE
:10B55C0001944FF48072012102F1804303F5C04342
:10B56C0090B21B68012B06D1D5F804330B4202D0E4
:10B57C00FFF7A8FE0C430432B2F5907F4FEA41016D
:10B58C00EAD1414BD3F87C31012B0CD14FF4BE7076
:10B59C00FFF798FE4FF0A04344F00044D3F8202569
:10B5AC000192C3F82025E3B2D3B1384F0025012610
:10B5BC00344210D0AB0003F1804303F5C043D3F801
:10B5CC001005D3F8101557F8253023B1C1F30141FC
:10B5DC00C0F3042098470135082D4FEA4606E7D101
:10B5EC00002C48DA294D4FF0A048294E4FF00009A5
:10B5FC00012716F9013B5A1C31D0C3F3C2020832A1
:10B60C006A44DCB212F8042C03F03F0A03F007037F
:10B61C0007FA03F31A4222D00AF5E073504658F8A1
:10B62C002330C3F3014BBBF1020F0CBF03210221EA
:10B63C00FFF754FE07FA0AF3C8F8203505EB0A03A6
:10B64C0093F9303055F823304BB1A109032904D0BC
:10B65C00BBF1020F12D1012901D15046984709F1D3
:10B66C000109B9F1040FC4D1D8F820350193C8F8F9
:10B67C002035002BB9D103B0BDE8F08FBBF1030F1F
:10B68C00EDD10229E8E700BF006000400422002051
:10B69C0054220020014B1B68184700BF6022002079
:10B6AC000E4B984237B50C4602D0002003B030BD8B
:10B6BC0000230DF107008DF80730FEF745FD084B10
:10B6CC001D7915B901221C601A719DF80700FEF74F
:10B6DC005FFD002DE9D01120E8E700BF00200040FD
:10B6EC0060220020034B984201BF034B00221A60DA
:10B6FC001A71704700200040602200200023435044
:10B70C0082B043580193019B02B070470A4610B5B2
:10B71C004FF48E71FFF7F2FF136A9168C95C136ADC
:10B72C0001331362C0F81C1510BD8B690A4610B5A5
:10B73C004FF4847123B9FFF7E1FFD0F8183510BD31
:10B74C00FFF7DCFF536AD168D0F81805C854536A68
:10B75C0001335362F3E700001FB501238DF800306D
:10B76C00044BCDE90110D3E900126846904705B0AF
:10B77C005DF804FB6822002030B54D4DD5F804333C
:10B78C009A0585B051D5D5F82431002B4DD04FF406
:10B79C0092712846FFF7B2FF4FF40173C5F80833D6
:10B7AC00444B93F829200AB901226A6040490222CD
:10B7BC008DF80020D1F88024C1F8802403929A6976
:10B7CC000292DA6801920022C3E906226846D3E9A4
:10B7DC00001290473648D0F81C315BB1354A51699C
:10B7EC00136A99424DD992F82830002B49D1114651
:10B7FC00FFF78CFF2E48D0F84431002B56D04FF475
:10B80C00A271FFF77BFF2B4B93F829200AB1012281
:10B81C0002609A69002A49D0586AD96800229A6154
:10B82C0005B0BDE83040FFF797BFD5F804335B0790
:10B83C00D0D5D5F80831002BCCD01E4C1C48214655
:10B84C00FFF773FF636AA2699A42C3D1E369E168A7
:10B85C004BB1A3612369E3600023606AE361636217
:10B86C00FFF77AFFB6E794F829300BB901236B6028
:10B87C000F4B4FF40172C3F808230023606AA361D5
:10B88C00EEE70B484FF48E71FFF738FF5369002B2E
:10B89C00B0D051690291002391688DF8003001916C
:10B8AC0053616846D2E900139847A3E705B030BD51
:10B8BC0000200040682200202DE9F843534D90F8F9
:10B8CC0004802C2303FB0853064693F82A300C46BD
:10B8DC009146002B40F096804D490068FFF7E0FE42
:10B8EC000746002840F0908022683068511C0BD02D
:10B8FC004FF0A04101239340C1F8083502F5E073E5
:10B90C004FF0030C41F823C061684B1C1FBF01F5BD
:10B91C00E0734FF0A04C4FF0000E4CF823E0A369FD
:10B92C00C0F8243594F814C0637DBCF1010F4CEAC7
:10B93C000303C0F86C35C0F81415C0F80C251DD1E4
:10B94C00A268531C1FBF02F5E0734FF0A0414FF0EB
:10B95C00000C41F823C0E368591C0BD04FF0A04CED
:10B96C0001219940CCF8081503F5E0714FF0030E56
:10B97C004CF821E0C0F80835C0F810252C2202FB49
:10B98C0008F2AB18C3F804902369AB50B9F1000F5F
:10B99C0020D04FF48E71247FFFF7B0FE4FF4A271CC
:10B9AC003068FFF7ABFE32681A4BC2F80433130B46
:10B9BC0042F307326101002AC9B21EDB1648841813
:10B9CC0084F800130121520903F01F0301FA03F359
:10B9DC0040F8223033680422C3F800252C2303FBE3
:10B9EC0008530022C3E9062283F829205A61012258
:10B9FC0083F82A203846BDE8F883084A03F00F0381
:10BA0C00D154E7E70827F5E71127F3E76822002070
:10BA1C0085B701008000020000E100E014ED00E0B9
:10BA2C00F8B503680579304C0022C3F800252C22A8
:10BA3C0002FB05425268A2B12C4AC3F808231A0B28
:10BA4C0043F30733002B0CDB02F01F015B090122CF
:10BA5C008A402033264941F82320BFF34F8FBFF390
:10BA6C006F8F0068D0F80C65D0F81415D0F8083535
:10BA7C00D0F810254FF0FF37BE42C0F8147518BF30
:10BA8C0006F5E076C0F80C75C0F80875C0F81075AE
:10BA9C001EBF4FF0A0474FF0020C47F826C04E1CBB
:10BAAC001FBF4FF0A04601F5E071022746F8217048
:10BABC00511C1FBF4FF0A04102F5E072022641F865
:10BACC0022605A1C1FBF03F5E0734FF0A042022105
:10BADC0042F82310FFF706FE2C2303FB054400233A
:10BAEC0084F82A306360F8BD6822002084020200CA
:10BAFC0000E100E00279044B2C2101FB0233586970
:10BB0C00003818BF01207047682200202DE9F84F3B
:10BB1C00064690F8048089469246FFF7EBFF0446F0
:10BB2C0000283CD1204F2C2508FB057B4FF48E714F
:10BB3C00CBF814A0CBF80890CBF820008BF8280099
:10BB4C003068FFF7DBFD3068012383605946FFF74F
:10BB5C00DDFDDBF804305D461BBB3068DBF81440C0
:10BB6C002B6A9C4211D83368D3F81C21002AFBD0D5
:10BB7C000122DA6000202C2303FB087700237B6171
:10BB8C00BDE8F88F95F828303BB9D0F81C31002B64
:10BB9C00F8D05946FFF7BAFDE2E70F20EBE711208A
:10BBAC00EEE72046ECE700BF68220020002343505C
:10BBBC0082B043580193019B02B070471FB501231B
:10BBCC008DF80030044BCDE90110D3E90012684622
:10BBDC00904705B05DF804FB942200207FB5434AE2
:10BBEC00D2F82461002E60D010464FF49271FFF70A
:10BBFC00DDFF02238DF80030D2F88034C2F8803497
:10BC0C000393D2F83C350293394BDA680192002247
:10BC1C00C3E906226846D3E9001290473348D0F8AE
:10BC2C00443173B14FF4A271FFF7C0FF304B9A69E6
:10BC3C003AB10022C3E90622D968D0F83C05FFF7D7
:10BC4C00BDFF2A48D0F82031ABB14FF49071FFF70B
:10BC5C00ADFF0123C360264B5A6962B1D0F84C1575
:10BC6C000291002299688DF8002001915A61684672
:10BC7C00D3E9001290471D48D0F858319BB14FF4CE
:10BC8C00AC71FFF793FF1A4B5A6962B1D0F84C159F
:10BC9C000291002299688DF8002001915A61684642
:10BCAC00D3E90012904704B070BDD2F81031002BCC
:10BCBC00B4D04FF488711046FFF778FF0C4BD2F8D4
:10BCCC003C0599698842A9D1DC69D96864B1D2F87C
:10BCDC00005225F02005C2F800521A699C61DA6006
:10BCEC00DE61FFF76BFF99E79C61FAE700200040EB
:10BCFC00942200202DE9F8435A4E90F80480242316
:10BD0C0003FB0863044693F820300D469146002B44
:10BD1C0040F0A38054490068FFF7C2FC0746002896
:10BD2C0040F09D802A682068511C0BD04FF0A04138
:10BD3C0001239340C1F8083502F5E0734FF0030C72
:10BD4C0041F823C069684B1C1FBF01F5E0734FF02D
:10BD5C00A04C4FF0000E4CF823E0AB69C0F8243532
:10BD6C0095F814C06B7DBCF1010F4CEA0303C0F8CD
:10BD7C006C35C0F80C25C0F814151DD1AA68531CDD
:10BD8C001FBF02F5E0734FF0A0414FF0000C41F8DB
:10BD9C0023C0EB68591C0BD04FF0A04C01219940EB
:10BDAC00CCF8081503F5E0714FF0030E4CF821E0C8
:10BDBC00C0F80835C0F81025242202FB08F2B3188D
:10BDCC00C3F804902B69B350B9F1000F2FD04FF486
:10BDDC0088712A7FFFF7EAFE20684FF49071FFF715
:10BDEC00E5FE20684FF49271FFF7E0FE20684FF4F7
:10BDFC00A271FFF7DBFE4FF4AC712068FFF7D6FEA3
:10BE0C0023681A49C3F80413190B43F3073352017F
:10BE1C00002BD2B21CDB1648C51885F80023012272
:10BE2C005B0901F01F0102FA01F140F823102368AD
:10BE3C000822C3F80025242303FB08660023C6E967
:10BE4C0006337361012386F820303846BDE8F88349
:10BE5C00084B01F00F015A54E9E70827F5E71127C1
:10BE6C00F3E700BF94220020E9BB0100100342005D
:10BE7C0000E100E014ED00E0F8B5444C0579242312
:10BE8C0003FB054302465B680068ABB1404BC0F84E
:10BE9C00083340F30733002B4FEA10310CDB01F071
:10BEAC001F065B090121B14020333A4E46F823109E
:10BEBC00BFF34F8FBFF36F8FD0F8003223F0200306
:10BECC00C0F80032242303FB05439B692BB14FF4CC
:10BEDC00A271FFF76BFE012343604FF4AC71FFF7C7
:10BEEC0065FE0123C360242303FB0543D0F85811DE
:10BEFC000029FBD0996919B1D0F844110029F5D06B
:10BF0C000023C0F800351368D3F80C75D3F814650A
:10BF1C00D3F80825D3F810154FF0FF3C6745C3F84C
:10BF2C000CC518BF07F5E077C3F814C5C3F808C5EE
:10BF3C00C3F810C51EBF4FF0A0434FF0020C43F8DE
:10BF4C0027C0771C1FBF4FF0A04306F5E0760227F1
:10BF5C0043F826704E1C1FBF01F5E0714FF0A04353
:10BF6C00022643F82160531C1FBF4FF0A04302F57B
:10BF7C00E072022143F82210FFF7B4FB242303FBE9
:10BF8C000544002384F820306360F8BD942200201F
:10BF9C001003420000E100E00279044B242101FB74
:10BFAC0002335869003818BF0120704794220020D2
:10BFBC0001F06043B3F1005F2DE9F0470646884677
:10BFCC0092463BD190F80490FFF7E6FF0446002818
:10BFDC0036D11D4F3068242505FB09754FF490713F
:10BFEC00C5F814A0C5F80880FFF7E0FD4FF4AC715C
:10BFFC003068FFF7DBFD33686A69A968C3F844153C
:10C00C00C3F8482501229A606A68DAB9D3F820216E
:10C01C00D3F858011AB90028F8D00F2007E00028EF
:10C02C00FBD10122DA60D3F85821002AFBD024235B
:10C03C0003FB097700237B61BDE8F0871020FBE749
:10C04C001120F9E72046F7E79422002072DF7047B1
:10C05C0073DF704776DF70477ADF70477CDF70479D
:10C06C007FDF70478FDF7047B1DF7047FDF784BE0D
:10C07C0008B5064B01211878FFF7EAFF08B1FDF768
:10C08C007BFEBDE808401520FEF764BF181B00209E
:10C09C000388212B13B504465BD007D8112B35D060
:10C0AC00132B4ED0102B0CD002B010BD522B5ED0E7
:10C0BC00562B01D03B2BF7D1A0881321FFF7CAFFD9
:10C0CC001DE02F4B2F483049C01AC008000440F027
:10C0DC000300FDF7A3FC2D4800F017FB0520FEF72D
:10C0EC0039FF1520FEF742FF294BA18829481980FA
:10C0FC0001F0C4F808B1FDF73FFEFDF7FBFD002889
:10C10C00D2D002B0BDE81040FDF736BE1C4B1D4826
:10C11C002149C01AC008000440F00300FDF77EFC62
:10C12C000520FEF723FF1A4B4FF6FF721A80FDF71E
:10C13C00F7FD08B1FDF720FE02B0BDE81040FFF797
:10C14C0097BF134800231A4685210088FFF788FF04
:10C15C00D5E7002380888DF8043001A98DF80530CF
:10C16C00FFF780FF00289FD0FDF706FE9CE70848EC
:10C17C0000231A4619460088FFF776FFBFE700BF79
:10C18C00C4DA0100ECDA010046E2010050E20100E1
:10C19C001A1B0020202300205BE2010008B50B4B8A
:10C1AC000B490246188801F04FF930F008020BD009
:10C1BC0043F20202904207D043F20142904203D074
:10C1CC00BDE80840FDF7D8BD08BD00BF1A1B002014
:10C1DC000823002008B503784BB9054B3B21188880
:10C1EC00FFF738FF18B1BDE80840FDF7C5BD08BD25
:10C1FC001A1B002010B50A4B0A4CE41AE40824045C
:10C20C0044F003040C203AB1FEF7A4FE0649204684
:10C21C00BDE81040FDF702BCFEF7A8FE0349F6E7A7
:10C22C00C4DA0100ECDA010068E2010079E20100F5
:10C23C00FDF7A2BD80B54FF48041A6B00020FDF7FC
:10C24C0053FA08B1FDF798FDFDF78EF90120FEF7C2
:10C25C00A8FEFDF74FFE08B1FDF78EFDFEF7B6FC0C
:10C26C0008B1FDF789FD01F057F908B1FDF784FD20
:10C27C00002317A90120179301F0DAF908B1FDF793
:10C28C007BFD17A801F076FA08B1FDF775FD1123B7
:10C29C006B498DF82030092208A8FFF7DFFE08B1A2
:10C2AC00FDF76AFD0023ADF860305023ADF85C302B
:10C2BC00A023ADF85E3017A84FF4C873ADF8623008
:10C2CC00FFF7CAFE08B1FDF757FD5E48002100F0EC
:10C2DC00F8FE08B1FDF750FD002308935A485B4B5C
:10C2EC00179317A900F0B8FF08B1FDF745FD584B9F
:10C2FC005848089308A901F039F808B1FDF73CFD3E
:10C30C0041F22353ADF80430524B534C9B7C8DF8C7
:10C31C0006303C22002108A801F017FB02238DF8FF
:10C32C0020303C2240F20163002117A8ADF82230E6
:10C33C0001F00BFB22460123ADF86C3052F8041BC4
:10C34C0001AB08A81C9300F05EFA08B1FDF714FDD0
:10C35C00424AA16817A800F056FA08B1FDF70CFD87
:10C36C001822002102A801F0F0FA01238DF81D30EB
:10C37C008DF8083038493A48402302AA0493FFF755
:10C38C0065FE08B1FDF7F8FC1422002117A801F096
:10C39C00DCFA4FF4A0334FF4A022CDE91823032389
:10C3AC008DF868302F4B1C9317A82F4B1D9300F062
:10C3BC00F5FC08B1FDF7E0FC2C482D4C2D4D00F0A0
:10C3CC00A4F9FFF755FE00F069F800F08BF823682C
:10C3DC00022B11D100F08EF800F088F82E68012E97
:10C3EC0026D1002724482F6000F08FF9234B3046CC
:10C3FC001E70FFF7D3FE27602B68012B11D100F0C4
:10C40C008AF800F06FF82368022B15D100261C481F
:10C41C00266000F07AF9194B30461E70FFF7BEFE0D
:10C42C002E60FDF7B1F90028D1D1FEF7E5FBCEE780
:10C43C00642000F081F8D1E7642000F07DF8E2E799
:10C44C008BE20100F82200202023002079C001009B
:10C45C0001C2010008230020081B0020141B00202F
:10C46C00181B0020E1C101003DC2010095E2010052
:10C47C002C23002030230020A9E20100B822002048
:10C48C00B2E2010009B1014B196070472C23002066
:10C49C0009B1014B196070473023002007B5FEF736
:10C4AC003BFF0D4B9A7819888DF80220B3F80320C6
:10C4BC00ADF800105B79ADF804206946074A8DF899
:10C4CC0006301020FEF760FF054A01A90420FEF794
:10C4DC005BFF03B05DF804FBBCE2010091C40100FA
:10C4EC009DC4010001211020FEF7C6BF01210420CC
:10C4FC00FEF7C2BF08B51020FFF704F84FF0A043B9
:10C50C00D3F8402722F44032C3F84027D3F8402711
:10C51C00C3F8402708BD08B50420FEF7F3FF4FF021
:10C52C00A043D3F8102722F44032C3F81027D3F8D5
:10C53C001027C3F8102708BD38B5044638B1044D90
:10C54C0045F001054FF47A40A847013CFAD138BDBB
:10C55C00D0E201000369C26893429CBF80681B183B
:10C56C00013B981A70472DE9F843D0E9029405462F
:10C57C00A9EB04084068904520440F46144404D9A4
:10C58C0001F0BAF9EC60BDE8F8834246A4EB09046B
:10C59C0001F0B2F96868224607EB0801F0E72DE9D3
:10C5AC00F843C5680646894617464FF000083469BB
:10C5BC00B3687068A54228BFE418013C621B5C1B81
:10C5CC00BC4228BF3C46944228BF144649462844E6
:10C5DC00224601F091F9B3682544AB4208BF00250F
:10C5EC003F1BA044A144F560E1D14046BDE8F8836F
:10C5FC0010B5114C114AA2610223C4E90433104B4B
:10C60C00E361A2644FF400730E4A0F492362E264A3
:10C61C0000231022E01DA3626362E362A3656365DD
:10C62C00E365226501F0C4F90849204601F0C0F920
:10C63C002023A37110BD00BF34230020D6E20100DB
:10C64C00BC230020AC230020DFE20100E3E2010068
:10C65C0070B5164B182400FB04451D4404FB003335
:10C66C001646DC6A012C0ED0022C18D0E4B92846F0
:10C67C00FFF770FF864204D832462846FFF773FF57
:10C68C003446204670BD2846FFF764FF8642344688
:10C69C0028BF044622462846FFF765FFF1E72846E7
:10C6AC00BDE87040FFF77BBF0024EAE7342300208D
:10C6BC0073B50E4B1B7804460D4616460BB9FFF7A7
:10C6CC0097FF00230DF107008DF80730FDF73CFDB7
:10C6DC00324629462046FFF7BBFF04469DF807006B
:10C6EC00FDF756FD204602B070BD00BF342300207C
:10C6FC0038B5054608460C4601F07CF92146024641
:10C70C002846BDE83840FFF7D3BF01460020FFF7AD
:10C71C00EFBF6DDF704779DF70477DDF704764DFF7
:10C72C0070472DE9F04F85B000250E9CBDF83CB04C
:10C73C00B4F800A00191074690461E46A9463A88D7
:10C74C004A450DDC45B12388013BA3EB0A039BB2A0
:10C75C00FF2B3AD806F80A30002005B0BDE8F08F60
:10C76C007A6852F82900039000220DF10B0103A8FE
:10C77C00FFF7D5FF0028F0D19DF80B20424521D1C1
:10C78C002288002D14BF0020022002EB0801014476
:10C79C0059451ADC3DB9013292B2019B2280B35447
:10C7AC0022880132228022880DF10B01324403A829
:10C7BC00FFF7B5FF0028D0D121889DF80B200A4443
:10C7CC002280012509F10109B9E70C20C5E72DE903
:10C7DC00F341089FBDF824801546CDE9007802226C
:10C7EC0004461E46FFF79DFF50B9334610222946DA
:10C7FC002046CDE9087802B0BDE8F041FFF791BFC3
:10C80C0002B0BDE8F0812DE9F04F002317881380AA
:10C81C0090F82D3085B006460D4614465BB3082FB4
:10C82C0001D80C2028E102A8FFF773FF002840F084
:10C83C0023812388DDF809100822EA542388013368
:10C84C009BB21B222380EA54238801339BB2EA1843
:10C85C002380E950BDF80D30938023889DF8082083
:10C86C0006339BB212F0FE0218BF01222380EA5459
:10C87C00238801332380B378FBB123880433BB4274
:10C88C00CFD802A8FFF747FF002840F0F580238897
:10C89C000322EA54238801339BB219222380EA54E1
:10C8AC002388BDF8082001339BB2E9182380EA5491
:10C8BC00120A4A70238802332380F2789AB12388B3
:10C8CC00D91CB942ADD80221E954238801339BB25B
:10C8DC0001212380E95423880B449BB22380EA5422
:10C8EC0023880B4423807268AAB12388D91CB942CF
:10C8FC0097D8022192F90020E954238801339BB286
:10C90C000A212380E954238801339BB22380EA5403
:10C91C002388013323803389002B40F0A180338A94
:10C92C005BB1CDE900472B460722032106F110002D
:10C93C00FFF74DFF002840F09F80338B5BB1CDE9B2
:10C94C0000472B461522142106F11800FFF73FFF74
:10C95C00002840F09180326A002A40F09080D6F88E
:10C96C002480B8F1000F30D0B8F804302188981C1E
:10C97C008A1C0244BA423FF654AFFE283FF651AF30
:10C98C0003336B54238801339BB2FF222380EA5478
:10C99C00238801339BB22380B8F80020EA54E918AD
:10C9AC00120A4A702088023080B22080B8F8042025
:10C9BC005AB1D8F8081000296BD0284400F09CFF1D
:10C9CC002388B8F804201344238096F82C30002BCD
:10C9DC0040F09880307800284ED03388012B58D006
:10C9EC00228802F1020CBC453FF61BAF012805D191
:10C9FC007378023313449F42FFF413AF023FBF1A04
:10CA0C00BFB202A905EB0C00ADF80870FFF785FE6C
:10CA1C0090BB3178BDF80830022900F0B9807278EB
:10CA2C009A4202D39F4280F0B180012940F0B2803B
:10CA3C00974293B2C0F0AE80ADF808300821BDF833
:10CA4C000830FE2B3FF6EDAE22880133AB54228822
:10CA5C00013292B22280A9542288134423800BE025
:10CA6C00CDE900472B460622022106F10800FFF70C
:10CA7C00AEFE00283FF453AF05B0BDE8F08FB4F81C
:10CA8C0000C00CF10603BB423FF6CBAE1188052962
:10CA9C0001D80720F0E76FF4486E01EB0E039BB250
:10CAAC004FF27D3E7345F4D95388052BF1D96FF4C1
:10CABC004860181880B27045EBD94FF6FF70814270
:10CACC0001D09942E5D8052305F80C3023880133B1
:10CADC009BB212212380E954238801339BB223801B
:10CAEC001188E954E818090A4170238802339BB273
:10CAFC0023805288EA54E918120A4A7023880233B8
:10CB0C0023802CE7B36A002BC3D04FF000084FF002
:10CB1C000C0A4FF0160BB16A5FFA88F20AFB02F2AC
:10CB2C0001EB0209B9F80430981CFE283FF679AEE7
:10CB3C00208803332B54238801339BB2238005F8C0
:10CB4C0003B0238801339BB223808A5AEA54E91834
:10CB5C00120A4A702088023080B22080B9F8042072
:10CB6C005AB1D9F80810002993D0284400F0C4FE1B
:10CB7C002388B9F804201344238096F82C2008F15C
:10CB8C0001085FFA88F39A42C5D823E7092156E7D2
:10CB9C009F42FBD2ADF8087050E775DF704776DF27
:10CBAC0070477ADF70477BDF70470000034B1A88B1
:10CBBC0082420CBF18460020704700BFD8250020C9
:10CBCC00024B9B6903B11847704700BFBC2500207E
:10CBDC0073B585B22846FFF7E9FF044638B3174E04
:10CBEC00027A337B9A420CD200F10A012846FFF7F5
:10CBFC00D4FFF0B111281AD002B0BDE87040FFF795
:10CC0C00DFBF00230372337C43B13B212846FFF77F
:10CC1C00C6FF30F0080301D0FFF7D2FF736933B1C0
:10CC2C0000228DF80420ADF8065001A8984702B0F8
:10CC3C0070BD237A01332372F9E700BFBC250020B5
:10CC4C0013B50B46497A02460E4871B9D0E901106A
:10CC5C001C7A002C18BF01465868FDF788F978B18A
:10CC6C0002B0BDE81040FFF7ABBF00211972436959
:10CC7C0033B101218DF80410ADF8062001A89847B6
:10CC8C0002B010BDBC2500204B8802889A4212D8F5
:10CC9C0042889A420FD380888B8840F2F3118842E5
:10CCAC0094BF021A421A9A4205D80844984234BFDB
:10CCBC000020012070470020704700000388122BD1
:10CCCC0070B5014659D004D8102B1ED0112B44D06E
:10CCDC0070BD502BFCD12F4BC288DB899A42F7D107
:10CCEC00038A022BF4D186883046FFF75FFF054696
:10CCFC000028EDD001F1120000F037F938BB68685C
:10CD0C00FDF74DF90028E3D009E0C37B012BDFD1FF
:10CD1C004FF6FF70FFF74AFF054620B90420BDE827
:10CD2C007040FFF74DBF1C4A8E88068000230372AB
:10CD3C001368C0F80A305368C0F80E3010310A304E
:10CD4C00FFF7A2FF134B6872DB89002BC0D1294679
:10CD5C003046BDE87040FFF773BF8088FFF726FFB1
:10CD6C0004460028B4D04068FDF719F908B1FFF764
:10CD7C0027FF4FF6FF732380AAE786883046FFF71C
:10CD8C0015FF05460028A3D008310A30FFF77CFFB9
:10CD9C006872DCE7BC250020EC250020F8B50646BF
:10CDAC0048B305460FCD154F3C460FC495E8070018
:10CDBC0084E807003068124C3C60B0B1FFF7F1FE1C
:10CDCC00C0B9326813682360536863600D480E4A1B
:10CDDC004FF6FF7303800D4B40F8043F0021FDF725
:10CDEC00BBF8002818BF032004E02046FFF7DBFE49
:10CDFC000028EBD0F8BD0E20FCE700BFBC250020BE
:10CE0C00EC250020D8250020DDCB0100F8250020E2
:10CE1C000AB1FDF797BBFDF79EBB73B50191019C61
:10CE2C0006466CB100252C46294601A8FDF79DFB52
:10CE3C0018B106EB440301349D800135142DF3D158
:10CE4C003046346002B070BD2DE9F043038884880D
:10CE5C00103B8DB00A2B1ED8DFE803F006361D1DE3
:10CE6C001D1D1D1D1D5B3D002E4FBB68DB4300933C
:10CE7C0079686846FDF7A5FB009901A8FFF7CDFF7F
:10CE8C000DF108080026019B9E4207D3132C12D9E2
:10CE9C000420FCF771FF0DB0BDE8F08338F8029B5D
:10CEAC0000250135494607EB8500FDF754FB1E2D87
:10CEBC00F7D10136E7E721461B48FDF743FB1B483A
:10CECC002146FDF73FFBE6E7174821460DB0BDE8CC
:10CEDC00F043FDF740BB027A15483F2A4FEA121582
:10CEEC00214694BF00220122FFF792FF022D94BF2E
:10CEFC00002201220F482146FFF78AFF012D0E4820
:10CF0C0094BF0022012221460DB0BDE8F043FFF78B
:10CF1C007FBF037A002BBED1427A0548C2F3C00210
:10CF2C002146F1E718260020202600201C26002090
:10CF3C00302600202C26002028260020AADF70474F
:10CF4C00002301380B70042806D8DFE800F0030634
:10CF5C00080A0C0011230B7070472123FBE73123C7
:10CF6C00F9E71223F7E72223F5E7008800F0010028
:10CF7C007047F0B58B7891B00C46012B38BF01236C
:10CF8C0000278DF80E3005460B88607CADF80C3010
:10CF9C006946ADF800708DF80270FFF7D1FFA07CE8
:10CFAC000DF10101FFF7CCFF1646237BE27B217DBF
:10CFBC0043EAC203227C43EA02139DF80220B942E1
:10CFCC0022F0190203F0190314BF022101211343AB
:10CFDC0061F342031C22394609A88DF8023000F097
:10CFEC00B4FC637B13F0300F14D00DF10901E07C1D
:10CFFC00ADF808708DF80A70FFF7A2FF11238DF8B9
:10D00C0008309DF80A30012102AA61F342038DF821
:10D01C000A300E92637B8DF82430A37B8DF825307B
:10D02C000023CDE90633089303AB0493A388ADF832
:10D03C001C30A368CDF814D01BB1E288ADF81820D1
:10D04C000893A36973B301A90022ADF804208A7078
:10D05C001A88ADF82C205A88ADF82E205A680D91FC
:10D06C00187B0A92FFF76CFFA3690DF10501587B41
:10D07C00FFF766FFA3699A7A197A41EAC201DA7A54
:10D08C009B7B41EA02119DF80620002B01F019014F
:10D09C0022F0190214BF02230123114363F342014E
:10D0AC008DF80610E36903B10C93334604AA09A961
:10D0BC002846FFF743FF11B0F0BDA5DF7047B5DF81
:10D0CC00704750B14FF0171303601B2303711723E4
:10D0DC00C160C3808360002070470E207047000041
:10D0EC0013B5034680880C4690B91A883A2A67D043
:10D0FC0010D8102A3DD0112A5ED0A37A43B1E18812
:10D10C000020FFF7DAFF002875D14FF4807363819C
:10D11C0002B010BD552AF0D1DB88C988A072172B3C
:10D12C0038BF17238B4228BF0B462381FFF7C7FF5D
:10D13C0060B1FDF7D1FD394B3949024639481B1A0C
:10D14C00DB081B0443F00100FCF76CFCE27A002ABC
:10D15C00D3D1E368002BD0D040F67721ADF8022074
:10D16C002289ADF80010ADF8042069462046984796
:10D17C00C3E7DB7B012B04BF0B88CB80C9882389D9
:10D18C008B42BAD20020FFF798FF10B90123E3724B
:10D19C00B3E7112802D10123A372AEE7FDF79CFD82
:10D1AC001E4B214902461F481B1ADB081B0443F087
:10D1BC000100FCF737FCA0E71723CB808B609CE7C2
:10D1CC005B89CA88934228BF1346172BCA6838BF9D
:10D1DC0017230B8162B1C97A51B140F67721ADF8B2
:10D1EC000010ADF80200ADF80430694620469047B7
:10D1FC000023638181E711288AD0FDF76DFD074B71
:10D20C000949024607481B1ADB081B0443F00100BE
:10D21C0002B0BDE81040FCF705BC00BF0CDB010000
:10D22C001BE30100C4DA0100EAE20100B0DF704741
:10D23C0066DF704710B5002104464088FFF7F8FF01
:10D24C00034608B9237210BD112801D10123F9E757
:10D25C006368BDE81040184760B159B10378DE2B04
:10D26C000AD00B684360DE2303704FF6FF734380D4
:10D27C00002070470E2070470820704728B10378B3
:10D28C00DE2B04D14180002070470E20704708200F
:10D29C007047F0B5054685B00C46002942D00028F1
:10D2AC0040D00B78DE2B3DD182884B889A4204D13A
:10D2BC000B7A13B10846FFF7BDFF2B88112B33D027
:10D2CC00512B0FD0012B2DD12B7A012B2AD1A988D0
:10D2DC006288914226D12046237205B0BDE8F04009
:10D2EC00FFF7A8BFAE886388B3421BD1AF79022F7A
:10D2FC0018D1AD7B2B1F022B14D8002110226846AD
:10D30C0000F023FB052D18BF4FF4C073694630465F
:10D31C0018BFADF804308DF80070FFF787FF08B127
:10D32C006368984705B0F0BD6388AA889A4204BF29
:10D33C004FF6FF736380F5E7A8DF7047AEDF7047E9
:10D34C0062DF70470288502A10B40CD1C4884A8816
:10D35C00944208D1028A012A05D14B691BB1827C07
:10D36C0010BC8088184710BC70470000F0B50B68E3
:10D37C0043618FB0334B02AA044603F110071646E3
:10D38C0018685968154603C50833BB422A46F7D1BD
:10D39C0004F112013046FFF7D3FF00284FD1A37CD4
:10D3AC008DF80630224641F2235301A90120ADF835
:10D3BC000430FFF7C1FF002841D10146202206A806
:10D3CC0000F0C3FA41F22453ADF81830A37C8DF869
:10D3DC001A309DF82530224623F0120301254FF018
:10D3EC00011643F0120332F80A0B079606A98DF8C2
:10D3FC0025308DF829508DF82B50FFF7BAFDF0B978
:10D40C000146202206A800F0A0FA41F22553ADF8FF
:10D41C001830A37C8DF81A309DF8253007962246DB
:10D42C0023F00A0343F00A0332F8020B8DF825307F
:10D43C0006A98DF829508DF82A50FFF79AFD0FB0E8
:10D44C00F0BD00BF57E3010000B589B00123ADF872
:10D45C000E308DF812304B89ADF810300DF10703FA
:10D46C008DF80720079300220DF10E0304A9CDF8C7
:10D47C0013208DF817200693FFF760FF09B05DF8B5
:10D48C0004FB10DF7047000013B5044609496846D9
:10D49C00FDF7C7FB019808B902B010BDD0E9003107
:10D4AC002046984718B16846FDF7C5FBF2E71120F6
:10D4BC00F2E700BF74E3010013B504460749684660
:10D4CC00FDF7AFFB019B0BB902B010BD2046D3E9B1
:10D4DC00002190476846FDF7AEFBF3E78CE30100B3
:10D4EC000B4991F816335A09EC231341DB0706D587
:10D4FC00084B9A683AB94FF480030B60704742F2BC
:10D50C000200FCF739BC1A6842F480021A607047BA
:10D51C0000E100E0B4210020F7B5194F3C7864BB62
:10D52C00184E012520463570FFF7AEFF112821D08B
:10D53C002046FFF7C1FF144B8DF80340186801908B
:10D54C000DF10300FCF700FE104901A8FFF799FF4D
:10D55C000446B0FA80F0400938709DF80300FCF7DF
:10D56C0017FE3CB90A4B34701C70FFF7B9FF284604
:10D57C00FFF7A2FF204603B0F0BD0824FAE700BF76
:10D58C0095260020942600206FE30100A19D010048
:10D59C0096260020014B1878704700BF9526002076
:10D5AC0007B508496846FDF73CFB019B13B903B06E
:10D5BC005DF804FBD3E9002090476846FDF73BFB80
:10D5CC00F3E700BF80E30100FFF7EABF60DF7047BD
:10D5DC0069DF704761DF704730B5134B1B7891B032
:10D5EC00FBB1124D34240DF1020103A8ADF8024039
:10D5FC00FFF7F0FF70B9294601A8FDF712FB029B5B
:10D60C00002BF0D003A8D3E90021904701A8FDF727
:10D61C0012FBF4E7052804D011B0BDE83040FCF74C
:10D62C00ABBB11B030BD00BF97260020D0E5010088
:10D63C0030B50C4685B0002900F089800023CDE977
:10D64C000133444A039301230A608DF804008DF8DA
:10D65C00063001A906232020ADF80830FFF7B8FFEB
:10D66C0060B1FDF739FB3C4B3C4902463C481B1A68
:10D67C00DB081B0443F00100FCF7D4F90023CDE9CF
:10D68C00013303932268012301A940208DF8053052
:10D69C00FFF79EFF60B1FDF71FFB2F4B3149024690
:10D6AC002F481B1ADB081B0443F00100FCF7BAF9E6
:10D6BC000023CDE90133039322680A2301A9012039
:10D6CC008DF80430FFF784FF60B1FDF705FB224BAA
:10D6DC002549024622481B1ADB081B0443F00100B3
:10D6EC00FCF7A0F90023CDE9023322684FF4B063B4
:10D6FC0001A9A1200193FFF76BFF60B1FDF7ECFAD4
:10D70C00154B1A49024616481B1ADB081B0443F03A
:10D71C000100FCF787F900252268039501A9A020D8
:10D72C00CDE90155FFF754FF034668B1FDF7D4FA74
:10D73C00094B0F4902460A481B1ADB081B0443F02D
:10D74C000100FCF76FF92B46184605B030BD0E23CF
:10D75C00FAE700BFE01A00201CDB010098E301008F
:10D76C00C4DA0100DEE301002AE4010076E40100E2
:10D77C00C7E40100F8B506460768FFF727FF3368D2
:10D78C00BB4205461DD91948194C1A49241AE408FC
:10D79C00240444F002042046FCF740F9336816498F
:10D7AC003A462046FCF747F94FF080533268D3F8DD
:10D7BC000C3112499B0203F100539A1A2046FCF7D4
:10D7CC0031F925B90E4B01221A702846F8BD2846AE
:10D7DC00FDF782FA064B0B49024604481B1ADB087C
:10D7EC001B0443F00100FCF71DF9EEE7C4DA01005D
:10D7FC001CDB01001AE5010049E501007AE5010096
:10D80C0097260020A4E501004BDF70471FB50E4C96
:10D81C0001A8FFF7F9FF70B9214602A8FDF701FA3C
:10D82C00039B002BF4D00198D3E90021904702A868
:10D83C00FDF701FAF4E7052804D004B0BDE8104068
:10D84C00FCF79ABA04B010BDE8E501007F2805D8B2
:10D85C00034A044B105C5B5C184070470020704717
:10D86C0000E6010080E60100A0F16103192B98BFCE
:10D87C0020387047A0F14103192B98BF2030704716
:10D88C007F299ABF017001206FF02E00704700BFF6
:10D89C005AB10A787F2A0AD800B102600021501AC6
:10D8AC00C3E9001118BF01207047104670476FF094
:10D8BC002E007047A0F16103192B98BF20387047D8
:10D8CC00A0F14103192B98BF203070477F2805D851
:10D8DC00034A044B105C5B5C184070470020704797
:10D8EC0000E6010080E60100024B5B689B680921A1
:10D8FC001B6818471C1B0020844640EA010313F0E8
:10D90C00030F18D18446202A0BD32DE9F007B1E878
:10D91C00F807A0E8F807A2F12002202AF7D2BDE808
:10D92C00F007042A07D351F8043B40F8043BA2F15A
:10D93C000402042AF7D2002A05D011F8013B00F8A2
:10D94C00013B013AF9D1604670478446002A2DD03C
:10D95C0010F0030F04D000F8011B013A26D0F7E7B2
:10D96C00C9B241EA012141EA0141202A12D3A2F1B4
:10D97C0020022DE9F0030B460C460D460E460F46D1
:10D98C0088468946A0E8FA03203AFBD2BDE8F003AA
:10D99C0020320BD0042A05D340F8041B043A05D0DE
:10D9AC00042AF9D200F8011B013AFBD160467047FA
:10D9BC00024610F0030F16D111F0030F13D12DE90D
:10D9CC00F0004FF001374FF0803351F8044BA4EBCB
:10D9DC00070525EA04051D4002D142F8044BF4E783
:10D9EC00A1F10401F0BC11F8013B02F8013B002B42
:10D9FC00F9D1704700F1010110F0030F11D010F8AC
:10DA0C00012B002A23D010F0030F0AD010F8012BA1
:10DA1C00002A1CD010F0030F03D010F8012B002AA1
:10DA2C0015D02DE970004FF001324FF0803350F8D3
:10DA3C00044BA4EB020525EA04051D4000D1F6E7D2
:10DA4C00A0F1040070BC10F8012B002AFBD1A0EB54
:04DA5C00010070470E
:08DA60002DB0010000000000E0
:10DA680055CE010000000000EDD00100F822002092
:10DA7800C9CC0100000000009FD201002023002033
:10DA880051D30100082300209DC0010000000000C0
:08DA9800C9B00100000000000C
:10DAA000E5D501000000000019D8010000000000C9
:10DAB000741B00203C1C0020441C00207C1B002008
:04DAC000180000004A
:10DAC4002AE201000000000030E201000000000032
:10DAD40037E20100000000003BE20100000000000A
:10DAE40040E20100000000009ADB01000000030393
:10DAF40070DC01000000000094DC01000000000064
:10DB040024E20100000000004AE3010000000303D6
:10DB140067E3010000000303C1E501000000030303
:10DB2400DCE501000000030306DD01000000000045
:08DB34001CDD010000000000EF
:10DB3C006CDB01000000000078DB0100F41A00200F
:10DB4C00FFFFFFFFFFFFFFFFFFFFFFFFFFFFFFFFD9
:10DB5C0000000000000000000000D60106010000DB
:10DB6C00DD940100419501008D9401007561727482
:10DB7C005F6C6F675F6261636B656E6400426163CB
:10DB8C006B656E647320666C757368656400617098
:10DB9C0070000000642000207F000000E4200020C2
:10DBAC001B5B313B33316D0025734C6F6773206405
:10DBBC00726F70706564202825642925730D0A0026
:10DBCC001B5B306D002573003C25733E2025733A9A
:10DBDC002000202530327800202020007C00256396
:10DBEC00001B5B313B33306D001B5B313B33326DC3
:10DBFC00001B5B313B33336D001B5B313B33346DAE
:10DC0C00001B5B313B33356D001B5B313B33366D99
:10DC1C00001B5B313B33376D007761726E696E6749
:10DC2C0000696E666F00646562756700CCDB01008D
:10DC3C00EDDB0100ACDB0100F5DB0100FDDB0100DD
:10DC4C0005DC01000DDC010015DC01001DDC010010
:10DC5C000000000081DC010025DC01002DDC01004E
:10DC6C0032DC01006170705F627574746F6E004617
:10DC7C006174616C206572726F7200537973746594
:10DC8C006D207265736574006170705F74696D6589
:10DC9C007200010006000000000000002C21002092
:10DCAC000D9E010052544320696E7374616E63655E
:10DCBC0020616C726561647920696E697469616C4C
:10DCCC00697A65642E005254433A20696E6974690E
:10DCDC00616C697A65642E00000000000000000091
:10DCEC00000000000338FDD8704730313233343532
:10DCFC00363738394142434445467077725F6D6719
:10DD0C006D74000068DA010068DA0100040000009C
:10DD1C00736F72746C697374004E52465F53554343
:10DD2C0043455353004E52465F4552524F525F5338
:10DD3C0056435F48414E444C45525F4D49535349FD
:10DD4C004E47004E52465F4552524F525F534F461C
:10DD5C00544445564943455F4E4F545F454E4142EE
:10DD6C004C4544004E52465F4552524F525F494E0D
:10DD7C005445524E414C004E52465F4552524F5202
:10DD8C005F4E4F5F4D454D004E52465F4552524FD0
:10DD9C00525F4E4F545F464F554E44004E52465FB5
:10DDAC004552524F525F4E4F545F535550504F5245
:10DDBC00544544004E52465F4552524F525F494EB5
:10DDCC0056414C49445F504152414D004E52465FC2
:10DDDC004552524F525F494E56414C49445F535441
:10DDEC00415445004E52465F4552524F525F494E88
:10DDFC0056414C49445F4C454E475448004E5246A0
:10DE0C005F4552524F525F494E56414C49445F4612
:10DE1C004C414753004E52465F4552524F525F4958
:10DE2C004E56414C49445F44415441004E52465F6A
:10DE3C004552524F525F444154415F53495A450039
:10DE4C004E52465F4552524F525F54494D454F55C5
:10DE5C0054004E52465F4552524F525F4E554C4CF9
:10DE6C00004E52465F4552524F525F464F52424906
:10DE7C004444454E004E52465F4552524F525F4904
:10DE8C004E56414C49445F41444452004E52465F09
:10DE9C004552524F525F42555359004E52465F45C0
:10DEAC0052524F525F434F4E4E5F434F554E5400AC
:10DEBC004E52465F4552524F525F5245534F555248
:10DECC00434553004E52465F4552524F525F4D4FA1
:10DEDC0044554C455F4E4F545F494E495449414C53
:10DEEC00495A4544004E52465F4552524F525F4D7F
:10DEFC00555445585F494E49545F4641494C454439
:10DF0C00004E52465F4552524F525F4D5554455844
:10DF1C005F4C4F434B5F4641494C4544004E524683
:10DF2C005F4552524F525F4D555445585F554E4CBC
:10DF3C004F434B5F4641494C4544004E52465F456A
:10DF4C0052524F525F4D555445585F434F4E445FAC
:10DF5C00494E49545F4641494C4544004E52465F38
:10DF6C004552524F525F4D4F44554C455F414C52B8
:10DF7C00454144595F494E495449414C495A4544DD
:10DF8C00004E52465F4552524F525F53544F5241CE
:10DF9C0047455F46554C4C004E52465F4552524FDA
:10DFAC00525F4150495F4E4F545F494D504C454D67
:10DFBC00454E544544004E52465F4552524F525FB7
:10DFCC00464541545552455F4E4F545F454E414274
:10DFDC004C4544004E52465F4552524F525F494F9A
:10DFEC005F50454E44494E47004E52465F45525293
:10DFFC004F525F4452565F5457495F4552525F4FE0
:10E00C0056455252554E004E52465F4552524F5253
:10E01C005F4452565F5457495F4552525F414E41DF
:10E02C00434B004E52465F4552524F525F4452563C
:10E03C005F5457495F4552525F444E41434B004E2B
:10E04C0052465F4552524F525F424C455F495053C6
:10E05C00505F52585F504B545F5452554E4341548D
:10E06C004544004E52465F4552524F525F424C451A
:10E07C005F495053505F4348414E4E454C5F414CB5
:10E08C0052454144595F455849535453004E5246EA
:10E09C005F4552524F525F424C455F495053505F5F
:10E0AC004C494E4B5F444953434F4E4E45435445A8
:10E0BC0044004E52465F4552524F525F424C455FB0
:10E0CC00495053505F504545525F52454A45435461
:10E0DC00454400556E6B6E6F776E206572726F7271
:10E0EC0020636F64650000000000000025DD010066
:10E0FC000100000031DD0100020000004FDD0100D5
:10E10C000300000070DD01000400000083DD01004D
:10E11C000500000094DD010006000000A8DD0100F0
:10E12C0007000000C0DD010008000000D8DD010080
:10E13C0009000000F0DD01000A00000009DE01000A
:10E14C000B00000021DE01000C00000038DE010095
:10E15C000D0000004CDE01000E0000005EDE010030
:10E16C000F0000006DDE01001000000081DE0100D8
:10E17C001100000098DE010012000000A7DE010073
:10E18C0013000000BCDE010080000000D0DE0100A6
:10E19C0081000000F1DE0100820000000DDF0100B3
:10E1AC008300000029DF01008400000047DF01002C
:10E1BC008500000068DF0100860000008DDF010093
:10E1CC0090000000A4DF010091000000C2DF0100FC
:10E1DC0092000000E0DF010000820000F5DF01008A
:10E1EC000182000013E00100028200002FE0010018
:10E1FC00008400004BE00100018400006FE001008E
:10E20C000284000099E0010003840000BEE00100DC
:10E21C00010000000D0E0F10636C6F636B00434C1C
:10E22C004F434B004750494F5445005052530055F3
:10E23C0041525400554152544500436F6E6E656314
:10E24C0074656400436F6E6E65637465643A004474
:10E25C006973636F6E6E65637465640052656365A4
:10E26C0069766564204C4544204F4E21005265630D
:10E27C006569766564204C4544204F464621004232
:10E28C006C652D677561726400426C652047726124
:10E29C00756420737461727465642E2000436F6D15
:10E2AC006520696E2000436F6D65206F75742000CA
:10E2BC00020002010002000000000000000000004B
:10E2CC00000000000338FDD870475465726D696E0C
:10E2DC00616C0052545400534547474552007364D7
:10E2EC005F626C655F67617474635F6578636861B6
:10E2FC006E67655F6D74755F726571756573742893
:10E30C00292072657475726E65642025732E0073F6
:10E31C00645F626C655F67617474735F6578636872
:10E32C00616E67655F6D74755F7265706C792829B5
:10E33C002072657475726E65642025732E006E7282
:10E34C00665F626C655F676174740023D1BCEA5FC1
:10E35C00782315DEEF1212000000006E72665F73F8
:10E36C00646800010000070098DA010098DA0100E7
:10E37C0008000000A0DA0100B0DA0100080000007B
:10E38C0098DA0100A0DA01000800000073645F62F3
:10E39C006C655F6366675F736574282920726574AA
:10E3AC0075726E6564202573207768656E206174C4
:10E3BC0074656D7074696E6720746F20736574205A
:10E3CC00424C455F434F4E4E5F4346475F4741507B
:10E3DC002E0073645F626C655F6366675F73657460
:10E3EC0028292072657475726E65642025732077F8
:10E3FC0068656E20617474656D7074696E672074E5
:10E40C006F2073657420424C455F4741505F434613
:10E41C00475F524F4C455F434F554E542E0073642B
:10E42C005F626C655F6366675F7365742829207231
:10E43C00657475726E6564202573207768656E202F
:10E44C00617474656D7074696E6720746F20736588
:10E45C007420424C455F434F4D4D4F4E5F434647F2
:10E46C005F56535F555549442E0073645F626C656B
:10E47C005F6366675F7365742829207265747572B3
:10E48C006E6564202573207768656E2061747465F1
:10E49C006D7074696E6720746F2073657420424CC4
:10E4AC00455F47415454535F4346475F4154545270
:10E4BC005F5441425F53495A452E0073645F626C4E
:10E4CC00655F6366675F7365742829207265747570
:10E4DC00726E6564202573207768656E2061747494
:10E4EC00656D7074696E6720746F2073657420425B
:10E4FC004C455F47415454535F4346475F53455225
:10E50C00564943455F4348414E4745442E00496EAA
:10E51C0073756666696369656E742052414D20613E
:10E52C006C6C6F636174656420666F7220746865CF
:10E53C0020536F66744465766963652E0043686189
:10E54C006E6765207468652052414D20737461724A
:10E55C0074206C6F636174696F6E2066726F6D20CE
:10E56C003078257820746F20307825782E004D6116
:10E57C0078696D756D2052414D2073697A652066FE
:10E58C006F72206170706C69636174696F6E206961
:10E59C007320307825782E0073645F626C655F653C
:10E5AC006E61626C6528292072657475726E656483
:10E5BC002025732E006E72665F7364685F626C65F3
:10E5CC000000000068DA010098DA01000800000081
:10E5DC006E72665F7364685F736F630060DA01006C
:10E5EC0068DA01000800000043000000504F534956
:10E5FC0058000000202020202020202020682828DF
:10E60C0028282020202020202020202020202020EE
:10E61C002020202048101010101010101010101076
:10E62C001010101084848484848484848484101056
:10E63C001010101010818181818181010101010173
:10E64C00010101010101010101010101010101109F
:10E65C001010101010828282828282020202020248
:10E66C000202020202020202020202020202021070
:10E67C001010102000070320041702010857104047
:10E68C0080000000F4E50100F8E601000CE8010050
:10E69C0053756E004D6F6E005475650057656400C0
:10E6AC0054687500467269005361740000000000E4
:10E6BC004A616E00466562004D61720041707200E5
:10E6CC004D6179004A756E004A756C0041756700A2
:10E6DC00536570004F6374004E6F760044656300A1
:10E6EC0000000000414D00504D00000030E80100DA
:10E6FC002CE801002CE801002CE801002CE80100BA
:10E70C002CE801002CE801002CE801002CE80100A9
:10E71C002CE80100FFFFFFFFFFFFFFFFFFFFFFFFE4
:10E72C00FFFF00006CE701009CE60100A8E7010078
:10E73C00BCE60100F0E6010050E7010000E8010032
:10E74C005CE70100256D2F25642F25790000000062
:10E75C00256120256220256520255420255900009F
:10E76C0053756E646179004D6F6E646179005475F8
:10E77C006573646179005765646E657364617900D3
:10E78C0054687572736461790046726964617900CA
:10E79C005361747572646179000000004A616E7592
:10E7AC00617279004665627275617279004D6172B1
:10E7BC00636800417072696C004D6179004A756E36
:10E7CC0065004A756C790041756775737400536503
:10E7DC007074656D626572004F63746F6265720070
:10E7EC004E6F76656D62657200446563656D62653A
:10E7FC007200000025483A254D3A255300000000D0
:10E80C0059D8010075D8010081D80100D9D8010070
:10E81C00C1D80100CDD801008DD801009DD80100D0
:06E82C00000000002E00B8
:10E834000000000000200040000000000020004014
:10E844000000000000000000FF0000000010014074
:10E85400110004000090D003B92200201F00000022
:10E86400D82200201F000000FF00FFFF90E60100F7
:10E8740090E6010090E6010090E6010090E60100B8
:0400000310009375E1
:00000001FF
